{
  "_format": "hh-sol-artifact-1",
  "contractName": "Auction",
  "sourceName": "src/contracts/Auction.sol",
  "abi": [
    {
      "inputs": [
        {
          "internalType": "uint256",
          "name": "_royaltyFee",
          "type": "uint256"
        }
      ],
      "stateMutability": "nonpayable",
      "type": "constructor"
    },
    {
      "anonymous": false,
      "inputs": [
        {
          "indexed": true,
          "internalType": "address",
          "name": "owner",
          "type": "address"
        },
        {
          "indexed": true,
          "internalType": "address",
          "name": "approved",
          "type": "address"
        },
        {
          "indexed": true,
          "internalType": "uint256",
          "name": "tokenId",
          "type": "uint256"
        }
      ],
      "name": "Approval",
      "type": "event"
    },
    {
      "anonymous": false,
      "inputs": [
        {
          "indexed": true,
          "internalType": "address",
          "name": "owner",
          "type": "address"
        },
        {
          "indexed": true,
          "internalType": "address",
          "name": "operator",
          "type": "address"
        },
        {
          "indexed": false,
          "internalType": "bool",
          "name": "approved",
          "type": "bool"
        }
      ],
      "name": "ApprovalForAll",
      "type": "event"
    },
    {
      "anonymous": false,
      "inputs": [
        {
          "indexed": true,
          "internalType": "uint256",
          "name": "tokenId",
          "type": "uint256"
        },
        {
          "indexed": false,
          "internalType": "address",
          "name": "seller",
          "type": "address"
        },
        {
          "indexed": false,
          "internalType": "address",
          "name": "owner",
          "type": "address"
        },
        {
          "indexed": false,
          "internalType": "uint256",
          "name": "price",
          "type": "uint256"
        },
        {
          "indexed": false,
          "internalType": "bool",
          "name": "sold",
          "type": "bool"
        }
      ],
      "name": "AuctionItemCreated",
      "type": "event"
    },
    {
      "anonymous": false,
      "inputs": [
        {
          "indexed": true,
          "internalType": "address",
          "name": "from",
          "type": "address"
        },
        {
          "indexed": true,
          "internalType": "address",
          "name": "to",
          "type": "address"
        },
        {
          "indexed": true,
          "internalType": "uint256",
          "name": "tokenId",
          "type": "uint256"
        }
      ],
      "name": "Transfer",
      "type": "event"
    },
    {
      "inputs": [
        {
          "internalType": "address",
          "name": "to",
          "type": "address"
        },
        {
          "internalType": "uint256",
          "name": "tokenId",
          "type": "uint256"
        }
      ],
      "name": "approve",
      "outputs": [],
      "stateMutability": "nonpayable",
      "type": "function"
    },
    {
      "inputs": [
        {
          "internalType": "address",
          "name": "owner",
          "type": "address"
        }
      ],
      "name": "balanceOf",
      "outputs": [
        {
          "internalType": "uint256",
          "name": "",
          "type": "uint256"
        }
      ],
      "stateMutability": "view",
      "type": "function"
    },
    {
      "inputs": [
        {
          "internalType": "uint256",
          "name": "tokenId",
          "type": "uint256"
        }
      ],
      "name": "buyAuctionedItem",
      "outputs": [],
      "stateMutability": "payable",
      "type": "function"
    },
    {
      "inputs": [
        {
          "internalType": "uint256",
          "name": "tokenId",
          "type": "uint256"
        },
        {
          "internalType": "uint256",
          "name": "price",
          "type": "uint256"
        }
      ],
      "name": "chanagePrice",
      "outputs": [],
      "stateMutability": "nonpayable",
      "type": "function"
    },
    {
      "inputs": [
        {
          "internalType": "uint256",
          "name": "tokenId",
          "type": "uint256"
        },
        {
          "internalType": "uint256",
          "name": "bid",
          "type": "uint256"
        }
      ],
      "name": "claimPrize",
      "outputs": [],
      "stateMutability": "nonpayable",
      "type": "function"
    },
    {
      "inputs": [],
      "name": "companyAcc",
      "outputs": [
        {
          "internalType": "address",
          "name": "",
          "type": "address"
        }
      ],
      "stateMutability": "view",
      "type": "function"
    },
    {
      "inputs": [
        {
          "internalType": "string",
          "name": "name",
          "type": "string"
        },
        {
          "internalType": "string",
          "name": "description",
          "type": "string"
        },
        {
          "internalType": "string",
          "name": "image",
          "type": "string"
        },
        {
          "internalType": "string",
          "name": "tokenURI",
          "type": "string"
        },
        {
          "internalType": "uint256",
          "name": "price",
          "type": "uint256"
        }
      ],
      "name": "createAuction",
      "outputs": [],
      "stateMutability": "payable",
      "type": "function"
    },
    {
      "inputs": [
        {
          "internalType": "uint256",
          "name": "tokenId",
          "type": "uint256"
        }
      ],
      "name": "getApproved",
      "outputs": [
        {
          "internalType": "address",
          "name": "",
          "type": "address"
        }
      ],
      "stateMutability": "view",
      "type": "function"
    },
    {
      "inputs": [
        {
          "internalType": "uint256",
          "name": "tokenId",
          "type": "uint256"
        }
      ],
      "name": "getAuction",
      "outputs": [
        {
          "components": [
            {
              "internalType": "string",
              "name": "name",
              "type": "string"
            },
            {
              "internalType": "string",
              "name": "description",
              "type": "string"
            },
            {
              "internalType": "string",
              "name": "image",
              "type": "string"
            },
            {
              "internalType": "uint256",
              "name": "tokenId",
              "type": "uint256"
            },
            {
              "internalType": "address",
              "name": "seller",
              "type": "address"
            },
            {
              "internalType": "address",
              "name": "owner",
              "type": "address"
            },
            {
              "internalType": "address",
              "name": "winner",
              "type": "address"
            },
            {
              "internalType": "uint256",
              "name": "price",
              "type": "uint256"
            },
            {
              "internalType": "bool",
              "name": "sold",
              "type": "bool"
            },
            {
              "internalType": "bool",
              "name": "live",
              "type": "bool"
            },
            {
              "internalType": "bool",
              "name": "biddable",
              "type": "bool"
            },
            {
              "internalType": "uint256",
              "name": "bids",
              "type": "uint256"
            },
            {
              "internalType": "uint256",
              "name": "duration",
              "type": "uint256"
            }
          ],
          "internalType": "struct Auction.AuctionStruct",
          "name": "",
          "type": "tuple"
        }
      ],
      "stateMutability": "view",
      "type": "function"
    },
    {
      "inputs": [],
      "name": "getAuctions",
      "outputs": [
        {
          "components": [
            {
              "internalType": "string",
              "name": "name",
              "type": "string"
            },
            {
              "internalType": "string",
              "name": "description",
              "type": "string"
            },
            {
              "internalType": "string",
              "name": "image",
              "type": "string"
            },
            {
              "internalType": "uint256",
              "name": "tokenId",
              "type": "uint256"
            },
            {
              "internalType": "address",
              "name": "seller",
              "type": "address"
            },
            {
              "internalType": "address",
              "name": "owner",
              "type": "address"
            },
            {
              "internalType": "address",
              "name": "winner",
              "type": "address"
            },
            {
              "internalType": "uint256",
              "name": "price",
              "type": "uint256"
            },
            {
              "internalType": "bool",
              "name": "sold",
              "type": "bool"
            },
            {
              "internalType": "bool",
              "name": "live",
              "type": "bool"
            },
            {
              "internalType": "bool",
              "name": "biddable",
              "type": "bool"
            },
            {
              "internalType": "uint256",
              "name": "bids",
              "type": "uint256"
            },
            {
              "internalType": "uint256",
              "name": "duration",
              "type": "uint256"
            }
          ],
          "internalType": "struct Auction.AuctionStruct[]",
          "name": "Auctions",
          "type": "tuple[]"
        }
      ],
      "stateMutability": "view",
      "type": "function"
    },
    {
      "inputs": [
        {
          "internalType": "uint256",
          "name": "tokenId",
          "type": "uint256"
        }
      ],
      "name": "getBidders",
      "outputs": [
        {
          "components": [
            {
              "internalType": "address",
              "name": "bidder",
              "type": "address"
            },
            {
              "internalType": "uint256",
              "name": "price",
              "type": "uint256"
            },
            {
              "internalType": "uint256",
              "name": "timestamp",
              "type": "uint256"
            },
            {
              "internalType": "bool",
              "name": "refunded",
              "type": "bool"
            },
            {
              "internalType": "bool",
              "name": "won",
              "type": "bool"
            }
          ],
          "internalType": "struct Auction.BiddableStruct[]",
          "name": "",
          "type": "tuple[]"
        }
      ],
      "stateMutability": "view",
      "type": "function"
    },
    {
      "inputs": [],
      "name": "getListingPrice",
      "outputs": [
        {
          "internalType": "uint256",
          "name": "",
          "type": "uint256"
        }
      ],
      "stateMutability": "view",
      "type": "function"
    },
    {
      "inputs": [],
      "name": "getLiveAuctions",
      "outputs": [
        {
          "components": [
            {
              "internalType": "string",
              "name": "name",
              "type": "string"
            },
            {
              "internalType": "string",
              "name": "description",
              "type": "string"
            },
            {
              "internalType": "string",
              "name": "image",
              "type": "string"
            },
            {
              "internalType": "uint256",
              "name": "tokenId",
              "type": "uint256"
            },
            {
              "internalType": "address",
              "name": "seller",
              "type": "address"
            },
            {
              "internalType": "address",
              "name": "owner",
              "type": "address"
            },
            {
              "internalType": "address",
              "name": "winner",
              "type": "address"
            },
            {
              "internalType": "uint256",
              "name": "price",
              "type": "uint256"
            },
            {
              "internalType": "bool",
              "name": "sold",
              "type": "bool"
            },
            {
              "internalType": "bool",
              "name": "live",
              "type": "bool"
            },
            {
              "internalType": "bool",
              "name": "biddable",
              "type": "bool"
            },
            {
              "internalType": "uint256",
              "name": "bids",
              "type": "uint256"
            },
            {
              "internalType": "uint256",
              "name": "duration",
              "type": "uint256"
            }
          ],
          "internalType": "struct Auction.AuctionStruct[]",
          "name": "Auctions",
          "type": "tuple[]"
        }
      ],
      "stateMutability": "view",
      "type": "function"
    },
    {
      "inputs": [],
      "name": "getMyAuctions",
      "outputs": [
        {
          "components": [
            {
              "internalType": "string",
              "name": "name",
              "type": "string"
            },
            {
              "internalType": "string",
              "name": "description",
              "type": "string"
            },
            {
              "internalType": "string",
              "name": "image",
              "type": "string"
            },
            {
              "internalType": "uint256",
              "name": "tokenId",
              "type": "uint256"
            },
            {
              "internalType": "address",
              "name": "seller",
              "type": "address"
            },
            {
              "internalType": "address",
              "name": "owner",
              "type": "address"
            },
            {
              "internalType": "address",
              "name": "winner",
              "type": "address"
            },
            {
              "internalType": "uint256",
              "name": "price",
              "type": "uint256"
            },
            {
              "internalType": "bool",
              "name": "sold",
              "type": "bool"
            },
            {
              "internalType": "bool",
              "name": "live",
              "type": "bool"
            },
            {
              "internalType": "bool",
              "name": "biddable",
              "type": "bool"
            },
            {
              "internalType": "uint256",
              "name": "bids",
              "type": "uint256"
            },
            {
              "internalType": "uint256",
              "name": "duration",
              "type": "uint256"
            }
          ],
          "internalType": "struct Auction.AuctionStruct[]",
          "name": "Auctions",
          "type": "tuple[]"
        }
      ],
      "stateMutability": "view",
      "type": "function"
    },
    {
      "inputs": [],
      "name": "getSoldAuctions",
      "outputs": [
        {
          "components": [
            {
              "internalType": "string",
              "name": "name",
              "type": "string"
            },
            {
              "internalType": "string",
              "name": "description",
              "type": "string"
            },
            {
              "internalType": "string",
              "name": "image",
              "type": "string"
            },
            {
              "internalType": "uint256",
              "name": "tokenId",
              "type": "uint256"
            },
            {
              "internalType": "address",
              "name": "seller",
              "type": "address"
            },
            {
              "internalType": "address",
              "name": "owner",
              "type": "address"
            },
            {
              "internalType": "address",
              "name": "winner",
              "type": "address"
            },
            {
              "internalType": "uint256",
              "name": "price",
              "type": "uint256"
            },
            {
              "internalType": "bool",
              "name": "sold",
              "type": "bool"
            },
            {
              "internalType": "bool",
              "name": "live",
              "type": "bool"
            },
            {
              "internalType": "bool",
              "name": "biddable",
              "type": "bool"
            },
            {
              "internalType": "uint256",
              "name": "bids",
              "type": "uint256"
            },
            {
              "internalType": "uint256",
              "name": "duration",
              "type": "uint256"
            }
          ],
          "internalType": "struct Auction.AuctionStruct[]",
          "name": "Auctions",
          "type": "tuple[]"
        }
      ],
      "stateMutability": "view",
      "type": "function"
    },
    {
      "inputs": [],
      "name": "getUnsoldAuctions",
      "outputs": [
        {
          "components": [
            {
              "internalType": "string",
              "name": "name",
              "type": "string"
            },
            {
              "internalType": "string",
              "name": "description",
              "type": "string"
            },
            {
              "internalType": "string",
              "name": "image",
              "type": "string"
            },
            {
              "internalType": "uint256",
              "name": "tokenId",
              "type": "uint256"
            },
            {
              "internalType": "address",
              "name": "seller",
              "type": "address"
            },
            {
              "internalType": "address",
              "name": "owner",
              "type": "address"
            },
            {
              "internalType": "address",
              "name": "winner",
              "type": "address"
            },
            {
              "internalType": "uint256",
              "name": "price",
              "type": "uint256"
            },
            {
              "internalType": "bool",
              "name": "sold",
              "type": "bool"
            },
            {
              "internalType": "bool",
              "name": "live",
              "type": "bool"
            },
            {
              "internalType": "bool",
              "name": "biddable",
              "type": "bool"
            },
            {
              "internalType": "uint256",
              "name": "bids",
              "type": "uint256"
            },
            {
              "internalType": "uint256",
              "name": "duration",
              "type": "uint256"
            }
          ],
          "internalType": "struct Auction.AuctionStruct[]",
          "name": "Auctions",
          "type": "tuple[]"
        }
      ],
      "stateMutability": "view",
      "type": "function"
    },
    {
      "inputs": [
        {
          "internalType": "address",
          "name": "owner",
          "type": "address"
        },
        {
          "internalType": "address",
          "name": "operator",
          "type": "address"
        }
      ],
      "name": "isApprovedForAll",
      "outputs": [
        {
          "internalType": "bool",
          "name": "",
          "type": "bool"
        }
      ],
      "stateMutability": "view",
      "type": "function"
    },
    {
      "inputs": [],
      "name": "name",
      "outputs": [
        {
          "internalType": "string",
          "name": "",
          "type": "string"
        }
      ],
      "stateMutability": "view",
      "type": "function"
    },
    {
      "inputs": [
        {
          "internalType": "uint256",
          "name": "tokenId",
          "type": "uint256"
        },
        {
          "internalType": "bool",
          "name": "biddable",
          "type": "bool"
        },
        {
          "internalType": "uint256",
          "name": "sec",
          "type": "uint256"
        },
        {
          "internalType": "uint256",
          "name": "min",
          "type": "uint256"
        },
        {
          "internalType": "uint256",
          "name": "hour",
          "type": "uint256"
        },
        {
          "internalType": "uint256",
          "name": "day",
          "type": "uint256"
        }
      ],
      "name": "offerAuction",
      "outputs": [],
      "stateMutability": "nonpayable",
      "type": "function"
    },
    {
      "inputs": [
        {
          "internalType": "uint256",
          "name": "tokenId",
          "type": "uint256"
        }
      ],
      "name": "ownerOf",
      "outputs": [
        {
          "internalType": "address",
          "name": "",
          "type": "address"
        }
      ],
      "stateMutability": "view",
      "type": "function"
    },
    {
      "inputs": [
        {
          "internalType": "uint256",
          "name": "tokenId",
          "type": "uint256"
        }
      ],
      "name": "placeBid",
      "outputs": [],
      "stateMutability": "payable",
      "type": "function"
    },
    {
      "inputs": [],
      "name": "royaltyFee",
      "outputs": [
        {
          "internalType": "uint256",
          "name": "",
          "type": "uint256"
        }
      ],
      "stateMutability": "view",
      "type": "function"
    },
    {
      "inputs": [
        {
          "internalType": "address",
          "name": "from",
          "type": "address"
        },
        {
          "internalType": "address",
          "name": "to",
          "type": "address"
        },
        {
          "internalType": "uint256",
          "name": "tokenId",
          "type": "uint256"
        }
      ],
      "name": "safeTransferFrom",
      "outputs": [],
      "stateMutability": "nonpayable",
      "type": "function"
    },
    {
      "inputs": [
        {
          "internalType": "address",
          "name": "from",
          "type": "address"
        },
        {
          "internalType": "address",
          "name": "to",
          "type": "address"
        },
        {
          "internalType": "uint256",
          "name": "tokenId",
          "type": "uint256"
        },
        {
          "internalType": "bytes",
          "name": "data",
          "type": "bytes"
        }
      ],
      "name": "safeTransferFrom",
      "outputs": [],
      "stateMutability": "nonpayable",
      "type": "function"
    },
    {
      "inputs": [
        {
          "internalType": "address",
          "name": "operator",
          "type": "address"
        },
        {
          "internalType": "bool",
          "name": "approved",
          "type": "bool"
        }
      ],
      "name": "setApprovalForAll",
      "outputs": [],
      "stateMutability": "nonpayable",
      "type": "function"
    },
    {
      "inputs": [
        {
          "internalType": "uint256",
          "name": "price",
          "type": "uint256"
        }
      ],
      "name": "setListingPrice",
      "outputs": [],
      "stateMutability": "nonpayable",
      "type": "function"
    },
    {
      "inputs": [
        {
          "internalType": "bytes4",
          "name": "interfaceId",
          "type": "bytes4"
        }
      ],
      "name": "supportsInterface",
      "outputs": [
        {
          "internalType": "bool",
          "name": "",
          "type": "bool"
        }
      ],
      "stateMutability": "view",
      "type": "function"
    },
    {
      "inputs": [],
      "name": "symbol",
      "outputs": [
        {
          "internalType": "string",
          "name": "",
          "type": "string"
        }
      ],
      "stateMutability": "view",
      "type": "function"
    },
    {
      "inputs": [
        {
          "internalType": "uint256",
          "name": "tokenId",
          "type": "uint256"
        }
      ],
      "name": "tokenURI",
      "outputs": [
        {
          "internalType": "string",
          "name": "",
          "type": "string"
        }
      ],
      "stateMutability": "view",
      "type": "function"
    },
    {
      "inputs": [
        {
          "internalType": "address",
          "name": "from",
          "type": "address"
        },
        {
          "internalType": "address",
          "name": "to",
          "type": "address"
        },
        {
          "internalType": "uint256",
          "name": "tokenId",
          "type": "uint256"
        }
      ],
      "name": "transferFrom",
      "outputs": [],
      "stateMutability": "nonpayable",
      "type": "function"
    }
  ],
  "bytecode": "0x608060405266470de4df820000600b553480156200001c57600080fd5b5060405162004482380380620044828339810160408190526200003f9162000170565b604080518082018252600f81526e44616c746f6e696320546f6b656e7360881b60208083019182528351808501909452600384526211105560ea1b9084015281519192916200009191600091620000ca565b508051620000a7906001906020840190620000ca565b5050600160075550600955600a80546001600160a01b03191633179055620001c7565b828054620000d8906200018a565b90600052602060002090601f016020900481019282620000fc576000855562000147565b82601f106200011757805160ff191683800117855562000147565b8280016001018555821562000147579182015b82811115620001475782518255916020019190600101906200012a565b506200015592915062000159565b5090565b5b808211156200015557600081556001016200015a565b6000602082840312156200018357600080fd5b5051919050565b600181811c908216806200019f57607f821691505b60208210811415620001c157634e487b7160e01b600052602260045260246000fd5b50919050565b6142ab80620001d76000396000f3fe6080604052600436106101cd5760003560e01c806395d89b41116100f7578063bf65a33311610095578063db0bd5c911610064578063db0bd5c91461050e578063e985e9c514610523578063f42fc7d61461056c578063f5a06acf1461058c57600080fd5b8063bf65a333146104a4578063c87b56dd146104b9578063d36acc39146104d9578063d7c06919146104f957600080fd5b8063a22cb465116100d1578063a22cb4651461042e578063a923f18c1461044e578063b88d4fde1461046e578063b8997a971461048e57600080fd5b806395d89b41146103f15780639979ef45146104065780639c196f7f1461041957600080fd5b806342842e0e1161016f57806370a082311161013e57806370a082311461036457806378bd7935146103845780637b154140146103b15780637c726b69146103d157600080fd5b806342842e0e146102d55780634fa7b507146102f557806355faaa33146103225780636352211e1461034457600080fd5b8063095ea7b3116101ab578063095ea7b31461026157806312e855851461028357806323b872dd146102a257806333748dcb146102c257600080fd5b806301ffc9a7146101d257806306fdde0314610207578063081812fc14610229575b600080fd5b3480156101de57600080fd5b506101f26101ed366004613a01565b61059f565b60405190151581526020015b60405180910390f35b34801561021357600080fd5b5061021c6105f1565b6040516101fe9190613a76565b34801561023557600080fd5b50610249610244366004613a89565b610683565b6040516001600160a01b0390911681526020016101fe565b34801561026d57600080fd5b5061028161027c366004613abe565b6106aa565b005b34801561028f57600080fd5b50600b545b6040519081526020016101fe565b3480156102ae57600080fd5b506102816102bd366004613ae8565b6107c5565b6102816102d0366004613bd0565b6107f6565b3480156102e157600080fd5b506102816102f0366004613ae8565b610c3c565b34801561030157600080fd5b50610315610310366004613a89565b610c57565b6040516101fe9190613c85565b34801561032e57600080fd5b50610337610d09565b6040516101fe9190613e00565b34801561035057600080fd5b5061024961035f366004613a89565b61109d565b34801561037057600080fd5b5061029461037f366004613e62565b6110fd565b34801561039057600080fd5b506103a461039f366004613a89565b611183565b6040516101fe9190613e7d565b3480156103bd57600080fd5b506102816103cc366004613e90565b6113e5565b3480156103dd57600080fd5b506102816103ec366004613a89565b611645565b3480156103fd57600080fd5b5061021c611674565b610281610414366004613a89565b611683565b34801561042557600080fd5b506103376118bb565b34801561043a57600080fd5b50610281610449366004613ec2565b611c47565b34801561045a57600080fd5b50610281610469366004613ef5565b611c52565b34801561047a57600080fd5b50610281610489366004613f43565b611dcd565b34801561049a57600080fd5b5061029460095481565b3480156104b057600080fd5b50610337611e05565b3480156104c557600080fd5b5061021c6104d4366004613a89565b6121a3565b3480156104e557600080fd5b50600a54610249906001600160a01b031681565b34801561050557600080fd5b506103376122b4565b34801561051a57600080fd5b506103376125ba565b34801561052f57600080fd5b506101f261053e366004613fbf565b6001600160a01b03918216600090815260056020908152604080832093909416825291909152205460ff1690565b34801561057857600080fd5b50610281610587366004613e90565b61295c565b61028161059a366004613a89565b612a5b565b60006001600160e01b031982166380ac58cd60e01b14806105d057506001600160e01b03198216635b5e139f60e01b145b806105eb57506301ffc9a760e01b6001600160e01b03198316145b92915050565b60606000805461060090613fe9565b80601f016020809104026020016040519081016040528092919081815260200182805461062c90613fe9565b80156106795780601f1061064e57610100808354040283529160200191610679565b820191906000526020600020905b81548152906001019060200180831161065c57829003601f168201915b5050505050905090565b600061068e82612cb3565b506000908152600460205260409020546001600160a01b031690565b60006106b58261109d565b9050806001600160a01b0316836001600160a01b031614156107285760405162461bcd60e51b815260206004820152602160248201527f4552433732313a20617070726f76616c20746f2063757272656e74206f776e656044820152603960f91b60648201526084015b60405180910390fd5b336001600160a01b03821614806107445750610744813361053e565b6107b65760405162461bcd60e51b815260206004820152603d60248201527f4552433732313a20617070726f76652063616c6c6572206973206e6f7420746f60448201527f6b656e206f776e6572206f7220617070726f76656420666f7220616c6c000000606482015260840161071f565b6107c08383612d12565b505050565b6107cf3382612d80565b6107eb5760405162461bcd60e51b815260040161071f90614024565b6107c0838383612dfe565b6107fe612f6f565b6000811161085c5760405162461bcd60e51b815260206004820152602560248201527f53616c6573207072696365206d7573742062652067726561746572207468616e604482015264207a65726f60d81b606482015260840161071f565b600b543410156108c35760405162461bcd60e51b815260206004820152602c60248201527f5072696365206d7573742062652067726561746572207468616e20746865206c60448201526b697374696e6720707269636560a01b606482015260840161071f565b600085511161090b5760405162461bcd60e51b81526020600482015260146024820152736e616d652063616e6e6f7420626520656d70747960601b604482015260640161071f565b600084511161095c5760405162461bcd60e51b815260206004820152601b60248201527f6465736372697074696f6e2063616e6e6f7420626520656d7074790000000000604482015260640161071f565b60008351116109a55760405162461bcd60e51b8152602060048201526015602482015274696d6167652063616e6e6f7420626520656d70747960581b604482015260640161071f565b60008251116109f65760405162461bcd60e51b815260206004820152601860248201527f746f6b656e5552492063616e6e6f7420626520656d7074790000000000000000604482015260640161071f565b6109ff82612fc9565b610a425760405162461bcd60e51b815260206004820152601460248201527321b7bab632103737ba1036b4b73a103a37b5b2b760611b604482015260640161071f565b6000610a4d60085490565b9050610a57613872565b60608101829052868152602081018690526040810185905260e08101839052610a836000808080613003565b610180820152336080820181905260a08201526000828152600c60209081526040909120825180518493610abb9284929101906138fb565b506020828101518051610ad492600185019201906138fb565b5060408201518051610af09160028401916020909101906138fb565b506060820151600382015560808201516004820180546001600160a01b03199081166001600160a01b039384161790915560a0840151600584018054831691841691909117905560c084015160068401805490921690831617905560e083015160078301556101008084015160088401805461012087015161014088015161ffff1990921693151561ff001916939093179215159093029190911762ff000019166201000092151592909202919091179055610160830151600983015561018090920151600a918201556000848152600d60205260409020805460ff1916600117905554610bdf911634613065565b604080513381526000602082018190528183018690526060820152905183917fa693a8f68fe4df789541ddd1b84d32ccaea90adddcc88406b4bbbf6466328d3c919081900360800190a25050610c356001600755565b5050505050565b6107c083838360405180602001604052806000815250611dcd565b6060600e6000838152602001908152602001600020805480602002602001604051908101604052809291908181526020016000905b82821015610cfe5760008481526020908190206040805160a0810182526004860290920180546001600160a01b03168352600180820154848601526002820154928401929092526003015460ff8082161515606085015261010090910416151560808301529083529092019101610c8c565b505050509050919050565b60606000805b600854811015610d6457600c6000610d28836001614087565b815260208101919091526040016000206008015460ff1615610d525781610d4e8161409f565b9250505b80610d5c8161409f565b915050610d0f565b508067ffffffffffffffff811115610d7e57610d7e613b24565b604051908082528060200260200182016040528015610db757816020015b610da4613872565b815260200190600190039081610d9c5790505b5091506000805b60085481101561109757600c6000610dd7836001614087565b815260208101919091526040016000206008015460ff161561108557600c6000610e02836001614087565b8152602001908152602001600020604051806101a0016040529081600082018054610e2c90613fe9565b80601f0160208091040260200160405190810160405280929190818152602001828054610e5890613fe9565b8015610ea55780601f10610e7a57610100808354040283529160200191610ea5565b820191906000526020600020905b815481529060010190602001808311610e8857829003601f168201915b50505050508152602001600182018054610ebe90613fe9565b80601f0160208091040260200160405190810160405280929190818152602001828054610eea90613fe9565b8015610f375780601f10610f0c57610100808354040283529160200191610f37565b820191906000526020600020905b815481529060010190602001808311610f1a57829003601f168201915b50505050508152602001600282018054610f5090613fe9565b80601f0160208091040260200160405190810160405280929190818152602001828054610f7c90613fe9565b8015610fc95780601f10610f9e57610100808354040283529160200191610fc9565b820191906000526020600020905b815481529060010190602001808311610fac57829003601f168201915b50505091835250506003820154602082015260048201546001600160a01b0390811660408301526005830154811660608301526006830154166080820152600782015460a0820152600882015460ff808216151560c08401526101008083048216151560e085015262010000909204161515908201526009820154610120820152600a9091015461014090910152845185908490811061106b5761106b6140ba565b602002602001018190525081806110819061409f565b9250505b8061108f8161409f565b915050610dbe565b50505090565b6000818152600260205260408120546001600160a01b0316806105eb5760405162461bcd60e51b8152602060048201526018602482015277115490cdcc8c4e881a5b9d985b1a59081d1bdad95b88125160421b604482015260640161071f565b60006001600160a01b0382166111675760405162461bcd60e51b815260206004820152602960248201527f4552433732313a2061646472657373207a65726f206973206e6f7420612076616044820152683634b21037bbb732b960b91b606482015260840161071f565b506001600160a01b031660009081526003602052604090205490565b61118b613872565b6000828152600c60205260409081902081516101a081019092528054829082906111b490613fe9565b80601f01602080910402602001604051908101604052809291908181526020018280546111e090613fe9565b801561122d5780601f106112025761010080835404028352916020019161122d565b820191906000526020600020905b81548152906001019060200180831161121057829003601f168201915b5050505050815260200160018201805461124690613fe9565b80601f016020809104026020016040519081016040528092919081815260200182805461127290613fe9565b80156112bf5780601f10611294576101008083540402835291602001916112bf565b820191906000526020600020905b8154815290600101906020018083116112a257829003601f168201915b505050505081526020016002820180546112d890613fe9565b80601f016020809104026020016040519081016040528092919081815260200182805461130490613fe9565b80156113515780601f1061132657610100808354040283529160200191611351565b820191906000526020600020905b81548152906001019060200180831161133457829003601f168201915b50505091835250506003820154602082015260048201546001600160a01b0390811660408301526005830154811660608301526006830154166080820152600782015460a0820152600882015460ff808216151560c08401526101008083048216151560e085015262010000909204161515908201526009820154610120820152600a909101546101409091015292915050565b6113ed612f6f565b6000828152600c60205260408120600a01549061140c90808080613003565b1161144e5760405162461bcd60e51b815260206004820152601260248201527141756374696f6e207374696c6c206c69766560701b604482015260640161071f565b6000828152600c60205260409020600601546001600160a01b031633146114b05760405162461bcd60e51b81526020600482015260166024820152752cb7ba9030b932903737ba103a3432903bb4b73732b960511b604482015260640161071f565b6000828152600e60205260409020805460019190839081106114d4576114d46140ba565b906000526020600020906004020160030160016101000a81548160ff0219169083151502179055506000600c6000848152602001908152602001600020600701549050600060646009548361152991906140d0565b61153391906140ef565b6000858152600c6020526040812060048101546005820180546006840180546001600160a01b031990811690915560088501805461ffff191660011790556009909401859055928316331790559293506001600160a01b0392831692169061159d90808080613003565b6000878152600c60205260409020600a01556115c2816115bd8587614111565b613065565b6115cc8284613065565b6040516323b872dd60e01b8152306004820181905233602483015260448201889052906323b872dd90606401600060405180830381600087803b15801561161257600080fd5b505af1158015611626573d6000803e3d6000fd5b50505050611633866130cc565b505050506116416001600755565b5050565b600a546001600160a01b0316331461166f5760405162461bcd60e51b815260040161071f90614128565b600b55565b60606001805461060090613fe9565b6000818152600c60205260409020600701543410156116d95760405162461bcd60e51b8152602060048201526012602482015271125b9cdd59999a58d95b9d08105b5bdd5b9d60721b604482015260640161071f565b6116e7600080600080613003565b6000828152600c60205260409020600a0154116117465760405162461bcd60e51b815260206004820152601a60248201527f41756374696f6e6564204974656d206e6f742061766169626c65000000000000604482015260640161071f565b6000818152600c602052604090206008015462010000900460ff166117ad5760405162461bcd60e51b815260206004820152601860248201527f41756374696f6e206d757374206265206269646461626c650000000000000000604482015260640161071f565b6040805160a08101825260009181018290526060810182905260808101829052338152346020820152906117e390808080613003565b60408083019182526000848152600e6020908152828220805460018181018355918452828420875160049092020180546001600160a01b039092166001600160a01b0319909216919091178155828701519181019190915593516002850155606085015160039094018054608087015115156101000261ff00199615159690961661ffff199091161794909417909355848152600c909252812060090180549161188c8361409f565b9091555050506000908152600c6020526040902034600782015560060180546001600160a01b03191633179055565b60606000805b60085481101561191557600c60006118da836001614087565b815260208101919091526040016000206008015460ff1661190357816118ff8161409f565b9250505b8061190d8161409f565b9150506118c1565b508067ffffffffffffffff81111561192f5761192f613b24565b60405190808252806020026020018201604052801561196857816020015b611955613872565b81526020019060019003908161194d5790505b5091506000805b60085481101561109757600c6000611988836001614087565b815260208101919091526040016000206008015460ff16611c3557600c60006119b2836001614087565b8152602001908152602001600020604051806101a00160405290816000820180546119dc90613fe9565b80601f0160208091040260200160405190810160405280929190818152602001828054611a0890613fe9565b8015611a555780601f10611a2a57610100808354040283529160200191611a55565b820191906000526020600020905b815481529060010190602001808311611a3857829003601f168201915b50505050508152602001600182018054611a6e90613fe9565b80601f0160208091040260200160405190810160405280929190818152602001828054611a9a90613fe9565b8015611ae75780601f10611abc57610100808354040283529160200191611ae7565b820191906000526020600020905b815481529060010190602001808311611aca57829003601f168201915b50505050508152602001600282018054611b0090613fe9565b80601f0160208091040260200160405190810160405280929190818152602001828054611b2c90613fe9565b8015611b795780601f10611b4e57610100808354040283529160200191611b79565b820191906000526020600020905b815481529060010190602001808311611b5c57829003601f168201915b50505091835250506003820154602082015260048201546001600160a01b0390811660408301526005830154811660608301526006830154166080820152600782015460a0820152600882015460ff808216151560c08401526101008083048216151560e085015262010000909204161515908201526009820154610120820152600a90910154610140909101528451859084908110611c1b57611c1b6140ba565b60200260200101819052508180611c319061409f565b9250505b80611c3f8161409f565b91505061196f565b6116413383836131d1565b6000868152600c60205260409020600501546001600160a01b03163314611c8b5760405162461bcd60e51b815260040161071f90614128565b6000868152600c602052604090206009015415611cea5760405162461bcd60e51b815260206004820152601f60248201527f57696e6e65722073686f756c6420636c61696d207072697a6520666972737400604482015260640161071f565b6000868152600c6020526040902060080154610100900460ff16611d7257611d13306001611c47565b6040516323b872dd60e01b8152336004820152306024820181905260448201889052906323b872dd90606401600060405180830381600087803b158015611d5957600080fd5b505af1158015611d6d573d6000803e3d6000fd5b505050505b6000868152600c6020526040812060098101919091556008018054861515620100000262ffffff1990911617610100179055611db084848484613003565b6000968752600c6020526040909620600a01959095555050505050565b611dd73383612d80565b611df35760405162461bcd60e51b815260040161071f90614024565b611dff848484846132a0565b50505050565b60606000805b600854811015611e685733600c6000611e25846001614087565b81526020810191909152604001600020600501546001600160a01b03161415611e565781611e528161409f565b9250505b80611e608161409f565b915050611e0b565b508067ffffffffffffffff811115611e8257611e82613b24565b604051908082528060200260200182016040528015611ebb57816020015b611ea8613872565b815260200190600190039081611ea05790505b5091506000805b6008548110156110975733600c6000611edc846001614087565b81526020810191909152604001600020600501546001600160a01b0316141561219157600c6000611f0e836001614087565b8152602001908152602001600020604051806101a0016040529081600082018054611f3890613fe9565b80601f0160208091040260200160405190810160405280929190818152602001828054611f6490613fe9565b8015611fb15780601f10611f8657610100808354040283529160200191611fb1565b820191906000526020600020905b815481529060010190602001808311611f9457829003601f168201915b50505050508152602001600182018054611fca90613fe9565b80601f0160208091040260200160405190810160405280929190818152602001828054611ff690613fe9565b80156120435780601f1061201857610100808354040283529160200191612043565b820191906000526020600020905b81548152906001019060200180831161202657829003601f168201915b5050505050815260200160028201805461205c90613fe9565b80601f016020809104026020016040519081016040528092919081815260200182805461208890613fe9565b80156120d55780601f106120aa576101008083540402835291602001916120d5565b820191906000526020600020905b8154815290600101906020018083116120b857829003601f168201915b50505091835250506003820154602082015260048201546001600160a01b0390811660408301526005830154811660608301526006830154166080820152600782015460a0820152600882015460ff808216151560c08401526101008083048216151560e085015262010000909204161515908201526009820154610120820152600a90910154610140909101528451859084908110612177576121776140ba565b6020026020010181905250818061218d9061409f565b9250505b8061219b8161409f565b915050611ec2565b60606121ae82612cb3565b600082815260066020526040812080546121c790613fe9565b80601f01602080910402602001604051908101604052809291908181526020018280546121f390613fe9565b80156122405780601f1061221557610100808354040283529160200191612240565b820191906000526020600020905b81548152906001019060200180831161222357829003601f168201915b50505050509050600061225e60408051602081019091526000815290565b9050805160001415612271575092915050565b8151156122a357808260405160200161228b929190614155565b60405160208183030381529060405292505050919050565b6122ac846132d3565b949350505050565b60606122bf60085490565b67ffffffffffffffff8111156122d7576122d7613b24565b60405190808252806020026020018201604052801561231057816020015b6122fd613872565b8152602001906001900390816122f55790505b50905060005b6008548110156125b657600c600061232f836001614087565b8152602001908152602001600020604051806101a001604052908160008201805461235990613fe9565b80601f016020809104026020016040519081016040528092919081815260200182805461238590613fe9565b80156123d25780601f106123a7576101008083540402835291602001916123d2565b820191906000526020600020905b8154815290600101906020018083116123b557829003601f168201915b505050505081526020016001820180546123eb90613fe9565b80601f016020809104026020016040519081016040528092919081815260200182805461241790613fe9565b80156124645780601f1061243957610100808354040283529160200191612464565b820191906000526020600020905b81548152906001019060200180831161244757829003601f168201915b5050505050815260200160028201805461247d90613fe9565b80601f01602080910402602001604051908101604052809291908181526020018280546124a990613fe9565b80156124f65780601f106124cb576101008083540402835291602001916124f6565b820191906000526020600020905b8154815290600101906020018083116124d957829003601f168201915b50505091835250506003820154602082015260048201546001600160a01b0390811660408301526005830154811660608301526006830154166080820152600782015460a0820152600882015460ff808216151560c08401526101008083048216151560e085015262010000909204161515908201526009820154610120820152600a90910154610140909101528251839083908110612598576125986140ba565b602002602001018190525080806125ae9061409f565b915050612316565b5090565b60606000805b60085481101561261f576125d8600080600080613003565b600c60006125e7846001614087565b8152602001908152602001600020600a0154111561260d57816126098161409f565b9250505b806126178161409f565b9150506125c0565b508067ffffffffffffffff81111561263957612639613b24565b60405190808252806020026020018201604052801561267257816020015b61265f613872565b8152602001906001900390816126575790505b5091506000805b60085481101561109757612691600080600080613003565b600c60006126a0846001614087565b8152602001908152602001600020600a0154111561294a57600c60006126c7836001614087565b8152602001908152602001600020604051806101a00160405290816000820180546126f190613fe9565b80601f016020809104026020016040519081016040528092919081815260200182805461271d90613fe9565b801561276a5780601f1061273f5761010080835404028352916020019161276a565b820191906000526020600020905b81548152906001019060200180831161274d57829003601f168201915b5050505050815260200160018201805461278390613fe9565b80601f01602080910402602001604051908101604052809291908181526020018280546127af90613fe9565b80156127fc5780601f106127d1576101008083540402835291602001916127fc565b820191906000526020600020905b8154815290600101906020018083116127df57829003601f168201915b5050505050815260200160028201805461281590613fe9565b80601f016020809104026020016040519081016040528092919081815260200182805461284190613fe9565b801561288e5780601f106128635761010080835404028352916020019161288e565b820191906000526020600020905b81548152906001019060200180831161287157829003601f168201915b50505091835250506003820154602082015260048201546001600160a01b0390811660408301526005830154811660608301526006830154166080820152600782015460a0820152600882015460ff808216151560c08401526101008083048216151560e085015262010000909204161515908201526009820154610120820152600a90910154610140909101528451859084908110612930576129306140ba565b602002602001018190525081806129469061409f565b9250505b806129548161409f565b915050612679565b6000828152600c60205260409020600501546001600160a01b031633146129955760405162461bcd60e51b815260040161071f90614128565b6000828152600c60205260408120600a0154906129b490808080613003565b116129f65760405162461bcd60e51b815260206004820152601260248201527141756374696f6e207374696c6c206c69766560701b604482015260640161071f565b60008111612a465760405162461bcd60e51b815260206004820152601f60248201527f5072696365206d7573742062652067726561746572207468616e207a65726f00604482015260640161071f565b6000918252600c602052604090912060070155565b612a63612f6f565b6000818152600c6020526040902060070154341015612ab95760405162461bcd60e51b8152602060048201526012602482015271125b9cdd59999a58d95b9d08105b5bdd5b9d60721b604482015260640161071f565b612ac7600080600080613003565b6000828152600c60205260409020600a015411612b265760405162461bcd60e51b815260206004820152601a60248201527f41756374696f6e6564204974656d206e6f742061766169626c65000000000000604482015260640161071f565b6000818152600c602052604090206008015462010000900460ff1615612b8e5760405162461bcd60e51b815260206004820152601c60248201527f41756374696f6e206d757374206e6f74206265206269646461626c6500000000604482015260640161071f565b6000818152600c6020526040812060048101546005909101546009546001600160a01b03928316939190921691606490612bc890346140d0565b612bd291906140ef565b9050612be2826115bd8334614111565b612bec8382613065565b6040516323b872dd60e01b8152306004820181905233602483015260448201869052906323b872dd90606401600060405180830381600087803b158015612c3257600080fd5b505af1158015612c46573d6000803e3d6000fd5b5050506000858152600c6020526040812060088101805461ffff19166001179055600901819055612c7a9150808080613003565b6000858152600c60205260409020600a81019190915560050180546001600160a01b0319163317905550612cb091506130c59050565b50565b6000818152600260205260409020546001600160a01b0316612cb05760405162461bcd60e51b8152602060048201526018602482015277115490cdcc8c4e881a5b9d985b1a59081d1bdad95b88125160421b604482015260640161071f565b600081815260046020526040902080546001600160a01b0319166001600160a01b0384169081179091558190612d478261109d565b6001600160a01b03167f8c5be1e5ebec7d5bd14f71427d1e84f3dd0314c0f7b2291e5b200ac8c7c3b92560405160405180910390a45050565b600080612d8c8361109d565b9050806001600160a01b0316846001600160a01b03161480612dd357506001600160a01b0380821660009081526005602090815260408083209388168352929052205460ff165b806122ac5750836001600160a01b0316612dec84610683565b6001600160a01b031614949350505050565b826001600160a01b0316612e118261109d565b6001600160a01b031614612e375760405162461bcd60e51b815260040161071f90614184565b6001600160a01b038216612e995760405162461bcd60e51b8152602060048201526024808201527f4552433732313a207472616e7366657220746f20746865207a65726f206164646044820152637265737360e01b606482015260840161071f565b612ea68383836001613347565b826001600160a01b0316612eb98261109d565b6001600160a01b031614612edf5760405162461bcd60e51b815260040161071f90614184565b600081815260046020908152604080832080546001600160a01b03199081169091556001600160a01b0387811680865260038552838620805460001901905590871680865283862080546001019055868652600290945282852080549092168417909155905184937fddf252ad1be2c89b69c2b068fc378daa952ba7f163c4a11628f55a4df523b3ef91a4505050565b60026007541415612fc25760405162461bcd60e51b815260206004820152601f60248201527f5265656e7472616e637947756172643a207265656e7472616e742063616c6c00604482015260640161071f565b6002600755565b6000612fd9600880546001019055565b6000612fe460085490565b9050612ff033826133cf565b612ffa8184613568565b50600192915050565b600061301282620151806140d0565b61301e84610e106140d0565b61302986603c6140d0565b6130348860016140d0565b61303e9042614087565b6130489190614087565b6130529190614087565b61305c9190614087565b95945050505050565b6000826001600160a01b03168260405160006040518083038185875af1925050503d80600081146130b2576040519150601f19603f3d011682016040523d82523d6000602084013e6130b7565b606091505b50509050806107c057600080fd5b6001600755565b60005b6000828152600e60205260409020548110156131b9576000828152600e60205260408120805483908110613105576131056140ba565b60009182526020918290206040805160a081018252600490930290910180546001600160a01b03168084526001820154948401949094526002810154918301919091526003015460ff8082161515606084015261010090910416151560808201529150331461318b5760016060820152805160208201516131869190613065565b613193565b600160808201525b6131a1600080600080613003565b604090910152806131b18161409f565b9150506130cf565b506000818152600e60205260408120612cb09161397b565b816001600160a01b0316836001600160a01b031614156132335760405162461bcd60e51b815260206004820152601960248201527f4552433732313a20617070726f766520746f2063616c6c657200000000000000604482015260640161071f565b6001600160a01b03838116600081815260056020908152604080832094871680845294825291829020805460ff191686151590811790915591519182527f17307eab39ab6107e8899845ad3d59bd9653f200f220920489ca2b5937696c31910160405180910390a3505050565b6132ab848484612dfe565b6132b784848484613602565b611dff5760405162461bcd60e51b815260040161071f906141c9565b60606132de82612cb3565b60006132f560408051602081019091526000815290565b905060008151116133155760405180602001604052806000815250613340565b8061331f846136fd565b604051602001613330929190614155565b6040516020818303038152906040525b9392505050565b6001811115611dff576001600160a01b0384161561338d576001600160a01b03841660009081526003602052604081208054839290613387908490614111565b90915550505b6001600160a01b03831615611dff576001600160a01b038316600090815260036020526040812080548392906133c4908490614087565b909155505050505050565b6001600160a01b0382166134255760405162461bcd60e51b815260206004820181905260248201527f4552433732313a206d696e7420746f20746865207a65726f2061646472657373604482015260640161071f565b6000818152600260205260409020546001600160a01b03161561348a5760405162461bcd60e51b815260206004820152601c60248201527f4552433732313a20746f6b656e20616c7265616479206d696e74656400000000604482015260640161071f565b613498600083836001613347565b6000818152600260205260409020546001600160a01b0316156134fd5760405162461bcd60e51b815260206004820152601c60248201527f4552433732313a20746f6b656e20616c7265616479206d696e74656400000000604482015260640161071f565b6001600160a01b038216600081815260036020908152604080832080546001019055848352600290915280822080546001600160a01b0319168417905551839291907fddf252ad1be2c89b69c2b068fc378daa952ba7f163c4a11628f55a4df523b3ef908290a45050565b6000828152600260205260409020546001600160a01b03166135e35760405162461bcd60e51b815260206004820152602e60248201527f45524337323155524953746f726167653a2055524920736574206f66206e6f6e60448201526d32bc34b9ba32b73a103a37b5b2b760911b606482015260840161071f565b600082815260066020908152604090912082516107c0928401906138fb565b60006001600160a01b0384163b156136f557604051630a85bd0160e11b81526001600160a01b0385169063150b7a029061364690339089908890889060040161421b565b6020604051808303816000875af1925050508015613681575060408051601f3d908101601f1916820190925261367e91810190614258565b60015b6136db573d8080156136af576040519150601f19603f3d011682016040523d82523d6000602084013e6136b4565b606091505b5080516136d35760405162461bcd60e51b815260040161071f906141c9565b805181602001fd5b6001600160e01b031916630a85bd0160e11b1490506122ac565b5060016122ac565b6060600061370a8361379a565b600101905060008167ffffffffffffffff81111561372a5761372a613b24565b6040519080825280601f01601f191660200182016040528015613754576020820181803683370190505b5090508181016020015b600019016f181899199a1a9b1b9c1cb0b131b232b360811b600a86061a8153600a850494508461378d57613792565b61375e565b509392505050565b60008072184f03e93ff9f4daa797ed6e38ed64bf6a1f0160401b83106137d95772184f03e93ff9f4daa797ed6e38ed64bf6a1f0160401b830492506040015b6d04ee2d6d415b85acef81000000008310613805576d04ee2d6d415b85acef8100000000830492506020015b662386f26fc10000831061382357662386f26fc10000830492506010015b6305f5e100831061383b576305f5e100830492506008015b612710831061384f57612710830492506004015b60648310613861576064830492506002015b600a83106105eb5760010192915050565b604051806101a001604052806060815260200160608152602001606081526020016000815260200160006001600160a01b0316815260200160006001600160a01b0316815260200160006001600160a01b031681526020016000815260200160001515815260200160001515815260200160001515815260200160008152602001600081525090565b82805461390790613fe9565b90600052602060002090601f016020900481019282613929576000855561396f565b82601f1061394257805160ff191683800117855561396f565b8280016001018555821561396f579182015b8281111561396f578251825591602001919060010190613954565b506125b692915061399c565b5080546000825560040290600052602060002090810190612cb091906139b1565b5b808211156125b6576000815560010161399d565b5b808211156125b65780546001600160a01b0319168155600060018201819055600282015560038101805461ffff191690556004016139b2565b6001600160e01b031981168114612cb057600080fd5b600060208284031215613a1357600080fd5b8135613340816139eb565b60005b83811015613a39578181015183820152602001613a21565b83811115611dff5750506000910152565b60008151808452613a62816020860160208601613a1e565b601f01601f19169290920160200192915050565b6020815260006133406020830184613a4a565b600060208284031215613a9b57600080fd5b5035919050565b80356001600160a01b0381168114613ab957600080fd5b919050565b60008060408385031215613ad157600080fd5b613ada83613aa2565b946020939093013593505050565b600080600060608486031215613afd57600080fd5b613b0684613aa2565b9250613b1460208501613aa2565b9150604084013590509250925092565b634e487b7160e01b600052604160045260246000fd5b600067ffffffffffffffff80841115613b5557613b55613b24565b604051601f8501601f19908116603f01168101908282118183101715613b7d57613b7d613b24565b81604052809350858152868686011115613b9657600080fd5b858560208301376000602087830101525050509392505050565b600082601f830112613bc157600080fd5b61334083833560208501613b3a565b600080600080600060a08688031215613be857600080fd5b853567ffffffffffffffff80821115613c0057600080fd5b613c0c89838a01613bb0565b96506020880135915080821115613c2257600080fd5b613c2e89838a01613bb0565b95506040880135915080821115613c4457600080fd5b613c5089838a01613bb0565b94506060880135915080821115613c6657600080fd5b50613c7388828901613bb0565b95989497509295608001359392505050565b602080825282518282018190526000919060409081850190868401855b82811015613cf357815180516001600160a01b031685528681015187860152858101518686015260608082015115159086015260809081015115159085015260a09093019290850190600101613ca2565b5091979650505050505050565b60006101a08251818552613d1682860182613a4a565b91505060208301518482036020860152613d308282613a4a565b91505060408301518482036040860152613d4a8282613a4a565b915050606083015160608501526080830151613d7160808601826001600160a01b03169052565b5060a0830151613d8c60a08601826001600160a01b03169052565b5060c0830151613da760c08601826001600160a01b03169052565b5060e083015160e085015261010080840151613dc68287018215159052565b5050610120838101511515908501526101408084015115159085015261016080840151908501526101809283015192909301919091525090565b6000602080830181845280855180835260408601915060408160051b870101925083870160005b82811015613e5557603f19888603018452613e43858351613d00565b94509285019290850190600101613e27565b5092979650505050505050565b600060208284031215613e7457600080fd5b61334082613aa2565b6020815260006133406020830184613d00565b60008060408385031215613ea357600080fd5b50508035926020909101359150565b80358015158114613ab957600080fd5b60008060408385031215613ed557600080fd5b613ede83613aa2565b9150613eec60208401613eb2565b90509250929050565b60008060008060008060c08789031215613f0e57600080fd5b86359550613f1e60208801613eb2565b95989597505050506040840135936060810135936080820135935060a0909101359150565b60008060008060808587031215613f5957600080fd5b613f6285613aa2565b9350613f7060208601613aa2565b925060408501359150606085013567ffffffffffffffff811115613f9357600080fd5b8501601f81018713613fa457600080fd5b613fb387823560208401613b3a565b91505092959194509250565b60008060408385031215613fd257600080fd5b613fdb83613aa2565b9150613eec60208401613aa2565b600181811c90821680613ffd57607f821691505b6020821081141561401e57634e487b7160e01b600052602260045260246000fd5b50919050565b6020808252602d908201527f4552433732313a2063616c6c6572206973206e6f7420746f6b656e206f776e6560408201526c1c881bdc88185c1c1c9bdd9959609a1b606082015260800190565b634e487b7160e01b600052601160045260246000fd5b6000821982111561409a5761409a614071565b500190565b60006000198214156140b3576140b3614071565b5060010190565b634e487b7160e01b600052603260045260246000fd5b60008160001904831182151516156140ea576140ea614071565b500290565b60008261410c57634e487b7160e01b600052601260045260246000fd5b500490565b60008282101561412357614123614071565b500390565b602080825260139082015272556e617574686f72697a656420656e7469747960681b604082015260600190565b60008351614167818460208801613a1e565b83519083019061417b818360208801613a1e565b01949350505050565b60208082526025908201527f4552433732313a207472616e736665722066726f6d20696e636f72726563742060408201526437bbb732b960d91b606082015260800190565b60208082526032908201527f4552433732313a207472616e7366657220746f206e6f6e20455243373231526560408201527131b2b4bb32b91034b6b83632b6b2b73a32b960711b606082015260800190565b6001600160a01b038581168252841660208201526040810183905260806060820181905260009061424e90830184613a4a565b9695505050505050565b60006020828403121561426a57600080fd5b8151613340816139eb56fea2646970667358221220382e9d8dae5f8a64fb5034155a1f86bcfaf52cc8916e9b2302c21369dfd3645064736f6c634300080b0033",
  "linkReferences": {},
  "deployedLinkReferences": {}
}